:020000040000FA
:1000000018F09FE518F09FE518F09FE518F09FE5C0
:1000100018F09FE50000A0E1F0FF1FE518F09FE554
:100020005800000040000000741B00004800000061
:100030004C000000000000005000000054000000D0
:10004000FEFFFFEAFEFFFFEAFEFFFFEAFEFFFFEA18
:10005000FEFFFFEAFEFFFFEA94009FE5AA10A0E37F
:100060005520A0E32430A0E3043080E50130A0E374
:10007000003080E50C1080E50C2080E5083090E52C
:10008000013B13E2FCFFFF0A0330A0E3003080E5F0
:100090000C1080E50C2080E558009FE50410A0E3DB
:1000A000041080E50210A0E3001080E548009FE501
:1000B000DBF021E300D0A0E1080040E2D7F021E32B
:1000C00000D0A0E1080040E2D1F021E300D0A0E19F
:1000D000080040E2D2F021E300D0A0E1030C40E2AE
:1000E000D3F021E300D0A0E1030C40E20C009FE537
:1000F00010FF2FE180C01FE000C01FE0D03C004097
:1001000004010000000000EB2E0000EB2C008FE249
:10011000000C90E800A08AE000B08BE001704AE299
:100120000B005AE10000001A260000EB0F00BAE8AD
:1001300018E04FE2010013E303F0471013FF2FE133
:10014000EC1B00000C1C0000102052E27800B028CC
:100150007800A128FBFFFF8A822EB0E13000B02892
:100160003000A12800409045004081451EFF2FE14E
:100170000030B0E30040B0E30050B0E30060B0E313
:10018000102052E27800A128FCFFFF8A822EB0E105
:100190003000A128003081451EFF2FE101C08FE211
:1001A0001CFF2FE11FB5059886460FBC009C02B0CE
:1001B0007047000001C08FE21CFF2FE130B475468C
:1001C000AE4630BC704700002A0600EB0210A0E1EA
:1001D000F1FFFFEB1CC09FE50FC08CE001001CE3AA
:1001E0000DE08F120FE0A0011CFF2FE101C08FE294
:1001F0001CFF2FE101F070FC750200007847C0463B
:1002000003002DE9EAFFFFEB0300BDE8390600EB30
:100210000C009FE50C109FE504209FE508309FE54A
:100220001EFF2FE1B0360040B8390040B036004024
:1002300001002DE900204DE90000A0E104D04DE2CD
:100240000100BDE8004020E900E0A0E10100BDE8B8
:10025000FF7F4EE90000A0E13CE04EE200004FE1EC
:1002600001002EE94C009FE5000090E501002EE919
:1002700044009FE5001090E500E081E53C009FE52B
:100280000FE0A0E110FF2FE12C009FE5000090E5BA
:1002900000E090E51C009FE50200BEE8001080E54C
:1002A0000100BEE800F06FE1FF7FDEE80000A0E1A2
:1002B0003CE09EE504F05EE2B400004078000040BF
:1002C0001D06000000205BE041004118514A515CCE
:1002D000002902D0012950D127E0410041184D4AA0
:1002E0008918897800290CD14B4989684200821805
:1002F000484BD218537801229A409143464A916064
:1003000012E041004118434A8918897801290BD12C
:1003100041498968420082183E4BD2185378012225
:100320009A4011433C4A916028E041004118394A03
:100330008918897800290CD13749896942008218C7
:10034000344BD218537801229A409143324A91613A
:1003500012E0410041182F4A8918897801290BD1F0
:100360002D498969420082182A4BD21853780122FC
:100370009A401143284A916100E0C046C046401CA3
:100380002649098888429FDB70470200002A02D074
:10039000012A0CD105E0204B1B68CB40D807C00FC9
:1003A00005E01D4B1B69CB40D807C00FC046C046B7
:1003B000704710B4002802D0012827D113E0002A8A
:1003C00007D1154BDB6801248C402343124CE360BA
:1003D00008E0012A06D1104B5B6801248C402343BE
:1003E0000D4C636012E0002A07D10B4BDB6901243E
:1003F0008C402343084CE36108E0012A06D1064BF8
:100400005B6901248C402343034C6361C04610BCEC
:100410007047000000000040008002E05A000040E9
:100420007D20C0002D49C8600800406801210843B4
:100430002A494860704710B5E120400200F072F888
:10044000FFF740FFFFF7ECFF01202549087010BCC3
:1004500008BC184782B0FFF7EEFF11202149087051
:1004600064204880122020490870FF20F530488021
:1004700013201E4908707D20C00048801C480121BF
:10048000184BC822009101901AA11D4800F0E4F910
:100490001C480221144BC822009101901AA118484F
:1004A00000F0DAF91B480321104BC822009101909B
:1004B00019A1134800F0D0F900F078FDC046FEE71E
:1004C0000648406802210843044948600800406823
:1004D000022188430149486070470000008000E025
:1004E00000C11FE0680000406C0000407000004048
:1004F0005C0000406C6564207461736B2031000007
:10050000C5060000600000406C6564207461736B78
:1005100020320000640000406C6564207461736BDD
:100520002033000070B505005A4800680121090415
:1005300008435849086008000068012189040843FD
:10054000544908602E013100534801F0E1FA0400DB
:100550005248007B80210843504908730C70240ADC
:100560000C7107200872032008734814C0688021AA
:1005700088434B49C8600800006980210843484906
:10058000086148484849486027204849486043482E
:100590000079032108434149087170BC08BC184721
:1005A000010043480078012809D10020404A10701A
:1005B00040480078000600160870012070470020AF
:1005C000FCE7364A1070704770B505000C003A48D9
:1005D0000078002820D1002D1ED038490C703649F3
:1005E0000C70002303E0E85C3549C8545B1CA3424F
:1005F000F9DB31490A780978491E2F4E31702F49AD
:100600000978891A2E4A515C09060816FFF7D9FFA6
:10061000012070BC08BC18470020FAE710B41F4A3C
:10062000107A2EE00207120F022A0BD0042A1CD0E7
:10063000062A02D00C2A20D116E0184A127D110693
:1006400009161BE01C4A1278002A0CDD1A4A13789E
:100650001278521E184C2270184A1278D21A184B6F
:100660009A5C0E4B1A7009E0C0460C4A1278114B86
:100670001A7001220E4B1A7000E0C046C046074AAD
:10068000107AC207D20F002ACCD00022044B1A6382
:1006900010BC704700C002E000879303000001E037
:1006A00000F0FFFF3002000000F1FFFF00F2FFFF4B
:1006B0007500004074000040770000407600004064
:1006C000D000004004007D25ED001126002C01D053
:1006D00065882678C046012231000020FFF769FEB8
:1006E000280000F09DFA002231001000FFF761FEA3
:1006F000280000F095FAEEE710B5002406E014217A
:100700006143FE4A881800F04FFF641C042CF6D3A6
:10071000FB4800F049FFFB4800F046FFFA4800F0B4
:1007200043FFFA4800F040FFF94800F03DFFF4486D
:10073000F8490860F348F849086010BC08BC18473D
:1007400010B5040000F0E4FFF4480068401CF349D1
:100750000860F3480068002808D1F14804600800E8
:10076000006801280ED1FFF7C7FF0BE0ED480068D5
:10077000002807D1EA480068C06AE16A884201D8C7
:10078000E7480460E8480068401CE7490860E7491A
:10079000E06A0968884202D9E449E06A08601422E4
:1007A000E16A5143D54A8818211D00F00DFF00F081
:1007B000BAFFDC480068002801D0D948006810BCA6
:1007C00008BC1847FFB581B00E000A9F0C9C216B36
:1007D0000398401E8000081800900098C008C000D0
:1007E0000090002E11D0002508E0715D200034300B
:1007F0004155705D002800D102E06D1C082DF4D336
:10080000C04600213B20015502E000213420015563
:10081000042F00D30327E762201D00F0D2FE200042
:10082000183000F0CEFE24610420C01BA061646279
:100830000020E063002140200155049A684603C867
:1008400000F0FEFE20600B98002801D00B98046099
:1008500005B0F0BC08BC1847FFB585B01700B8005C
:1008600000F0C1FF0600002E0BD0442000F0BBFFBB
:100870000400002C01D0266304E0300001F008F8E9
:1008800000E00024002C10D000220EA803C86B4604
:1008900013C303923A00089B05A803C8FFF792FF11
:1008A0002000FFF74DFF012501E00025ED43280062
:1008B00009B0F0BC08BC18479649096809680029C6
:1008C00001D1012100E00021002904D00021C94309
:1008D000974A116006E08F490968C968C868944A58
:1008E00041681160704710B50400206B00F0D0FF24
:1008F000200000F0CDFF10BC08BC184770B5050003
:1009000000F006FF002D02D18548006800E02800B5
:100910000400201D00F080FEA06A002803D0200003
:10092000183000F079FE80480068401C7E4908605D
:100930007B480068844209D1211D744800F044FEC0
:100940007C480068401C7B49086009E073480068E7
:10095000401E724908602000FFF7C5FFFFF7ACFF9B
:1009600000F0E1FE6F480068002805D06C48006880
:10097000844201D101F0A8F970BC08BC1847F8B551
:10098000002000906C480068002851D16B48006836
:10099000451C6A480560002D0FD15E4807685E4817
:1009A00000685C4908605C48076065480068401C56
:1009B00063490860FFF780FFC0465D4800688542D4
:1009C00035D3C046534800680068002801D1012093
:1009D00000E00020002804D00020C04354490860F3
:1009E00024E04C480068C068C4686668B54202D21A
:1009F0004F4806601AE0201D00F00EFEA06A002895
:100A000003D02000183000F007FE4849E06A09686A
:100A1000884202D94549E06A08601422E16A5143DC
:100A2000364A8818211D00F0CFFDCBE7C04604E010
:100A300044480068401C434908600098F8BC08BC62
:100A4000184770B50024002600F062FE3A4800689E
:100A5000401E3949086008000068002848D12F4826
:100A60000068002844D022E02748C068C4682000FD
:100A7000183000F0D1FD201D00F0CEFD2B49E06ABA
:100A80000968884202D92949E06A08601422E16AAB
:100A900051431A4A8818211D00F096FD2049E06A4A
:100AA0000968C96A884202D30120274908601648AC
:100AB0000068002801D1012000E000200028D3D0E8
:100AC000002C01D0FFF7F8FE1E480568002D0DD060
:100AD000C046FFF754FF002802D001201A490860E1
:100AE0006D1E002DF5D100201649086016480068DB
:100AF00000F019FE300070BC08BC18479801004097
:100B0000E8010040FC0100401002004024020040C7
:100B1000380200407C000040800000408800004017
:100B20007800004094000040A40000409000004085
:100B3000A800004084000040B00000408C0000404D
:100B4000A0000040980000409C000040F8B505005F
:100B50000E00FE480768FE480068001D00F05CFDBE
:100B6000681C002808D1002E06D0F9480168091D2C
:100B7000F84800F029FD1AE07C19F5480068446047
:100B8000BC4207D2F2480168091DF348006800F032
:100B900027FD0CE0EE480168091DF048006800F0F0
:100BA0001FFDEF480068844201D2ED480460F8BCA4
:100BB00008BC1847EB480068401CEA4908607047C9
:100BC000F3B581B0040000200090FFF7F3FFDF4889
:100BD0000668216802980D182068B04207D920687D
:100BE000A8420BD9B54209D90120009006E020683F
:100BF000A84201D8B54201D9012000902560009893
:100C0000002803D0A81B0021FFF7A0FFFFF719FF62
:100C10000700002F01D101F057F8FEBC08BC1847AF
:100C200070B504000025002C08D0FFF7C3FF002199
:100C30002000FFF78BFFFFF704FF0500002D01D117
:100C400001F042F870BC08BC184770B5040000F011
:100C50005FFD002C02D1BE48006800E020000600C5
:100C6000F56A00F060FD280070BC08BC184710B49D
:100C700001000023002902D1B54C246800E00C00DB
:100C80002200D06A10BC7047FEB507000D0000209E
:100C90000090042D00D3032500F03AFD002F02D16F
:100CA000AB48006800E038000400E66AAE423FD07E
:100CB000B5420BD9A648006884420DD0A44800680C
:100CC000C06AA84208D80120009005E0A04800684A
:100CD000844201D101200090E06A0190E562A069A0
:100CE000C00FC007002802D10420401BA061616929
:100CF0001422019850439C4A8018814201D101205E
:100D000000E00020002812D0201D00F085FC97494B
:100D1000E06A0968884202D99449E06A08601422AE
:100D2000E16A5143904A8818211D00F04DFCC046ED
:100D300000F0F9FCFEBC08BC18478A48006800288F
:100D400003D001208A49086027E000208849086014
:100D50008648016800E0491E14204843824A105822
:100D6000002801D1012000E000200028F3D1142246
:100D70004A437D4BD01842685268426002000832F4
:100D80004368934202D14268526842604268D26826
:100D90006F4B1A6075480160C046704770B505001A
:100DA00000F0B6FC002D02D16948006800E0280080
:100DB0000400201D00F030FCA06A002803D02000B1
:100DC000183000F029FC211D624800F0FDFB402096
:100DD000005D012802D100214020015500F0A3FC54
:100DE00064480068002805D000F092FCFFF764FD1D
:100DF00000F099FC56480068844212D15D480068B2
:100E0000002802D000F060FF0BE0524800685A4909
:100E10000968884203D100204D49086001E0FFF7CE
:100E20008CFF70BC08BC184710B4010000200A00F9
:100E3000484C5369A34201D1012300E00023002B59
:100E400011D04E4C936AA34201D1012300E000234C
:100E5000002B08D1936A002B01D1012300E000236D
:100E6000002B00D0012010BC704770B505002C008D
:100E70003748006884421FD0002C1DD000F048FC89
:100E80002000FFF7D1FF002814D0201D00F0C4FB84
:100E90003649E06A0968884202D93449E06A086044
:100EA0001422E16A5143304A8818211D00F08CFB5E
:100EB0002748006800F037FC70BC08BC1847F8B53C
:100EC000050000262C0000272000FFF7ADFF0028BA
:100ED00023D02448006800281AD11D49E06A096817
:100EE000C96A884200D30126201D00F095FB1F49E6
:100EF000E06A0968884202D91C49E06A0860142245
:100F0000E16A5143184A8818211D00F05DFB04E096
:100F100021001831194800F057FB3000F8BC08BC1C
:100F2000184710B535E000F0F3FB1548C068C468F9
:100F3000201D00F071FB10480068401E0E4908603B
:100F400010480068401E0F4908601DE08C000040FA
:100F50007800004038020040800000407C000040E3
:100F6000A8000040B0000040980100409000004000
:100F70009C000040940000408800004010020040A7
:100F8000240200408400004000F0CDFB2000FFF769
:100F9000AAFCFE4800680028C5D110BC08BC184750
:100FA000C046FFF7BEFF00F08FFEFAE71CB5F84819
:100FB00000210B00C82200910190F6A1F748FFF72D
:100FC0004BFC0400012C0CD100F088FEA01EF4495B
:100FD00008600120F34908600020F349086000F030
:100FE0008DFB1CBC08BC184710B500F077FE002034
:100FF000EC49086000F08BFB10BC08BC184710B52A
:1010000000F086FBE848046800F08DFB200010BC6F
:1010100008BC18470021E44A10687047E34800689C
:1010200070470100002902D1E148006800E0080093
:10103000020010003430704770B504000025FFF73F
:10104000B9FDDC4800680019DA490860FFF7F9FCCF
:101050000500280070BC08BC184770B505000C00DE
:10106000D34801681831280000F0BAFA01212000A5
:10107000FFF76CFD70BC08BC184770B506000C008B
:1010800015000120C0072043C94909688861C84884
:1010900001681831300000F097FA01212800FFF7AD
:1010A00055FD70BC08BC184770B50600F068C468F0
:1010B0002000183000F0B0FABF480068002813D1B3
:1010C000201D00F0A9FABD49E06A0968884202D9EA
:1010D000BA49E06A08601422E16A5143B84A8818A4
:1010E000211D00F071FA04E021001831B54800F02C
:1010F0006BFAAF49E06A0968C96A884204D90125D8
:101100000120B149086000E00025280070BC08BC3F
:10111000184770B505000E000120C0073043286055
:10112000EC68280000F078FA201D00F075FAA34959
:10113000E06A0968884202D9A049E06A086014227E
:10114000E16A51439E4A8818211D00F03DFA9849F2
:10115000E06A0968C96A884202D901209A49086090
:1011600070BC08BC184710B5040000F0D1FA9748CD
:10117000006820608C480068606000F0D4FA10BC01
:1011800008BC1847914909680160874909684160AE
:10119000704770B506000C0000F0BAFA8248026889
:1011A0007068131A2068401C002801D1002517E040
:1011B000864930680968884204D07068904201D836
:1011C00001250DE02068984207D92068C01A2060E8
:1011D0003000FFF7D7FF002502E000202060012546
:1011E00000F0A1FA280070BC08BC1847012076491D
:1011F000086070476E49096888696D490968C96A5D
:101200000422511A6A4A12689161704770B506004B
:101210000D0000F07DFA66480068C06B00280BD115
:1012200001216348006840300170002D04D028007F
:10123000FFF78CFC00F048FD00F075FA00F068FA4A
:101240005B480068C46B002C0AD0002E04D000203C
:1012500057490968C86303E0601E55490968C863B7
:101260000021534800684030017000F05CFA200013
:1012700070BC08BC1847FFB581B0070014001D0002
:1012800000F046FA4A48006840300078022812D040
:101290004749096808003C30C96BB9430160012126
:1012A0004348006840300170002D04D02800FFF74B
:1012B0004DFC00F009FD00F036FA00F029FA002C90
:1012C00003D03B480068C06B20603948006840305C
:1012D0000078022801D0002608E035490968080096
:1012E0003C30CA6B02998A430260012600213048D3
:1012F00000684030017000F016FA300005B0F0BC14
:1013000008BC1847FFB583B00D0016001F00012070
:101310000290039C00F0FCF9002F01D0E06B3860D4
:101320004020005D0190022140200155330000F073
:10133000EBFC051604080C0E1700E06B2843E06375
:101340000FE0E06B401CE0630BE0E56309E001980F
:10135000022801D0E56301E00020029001E000E0F6
:10136000C046C0460198012837D1201D00F054F92D
:101370001249E06A0968884202D91049E06A0860A7
:101380001422E16A51430E4A881821E0840000408B
:10139000AC00004049444C4500000000A10F000093
:1013A000A8000040940000408C00004088000040ED
:1013B0007800004098000040B000004090000040DD
:1013C00098010040100200409C000040A000004036
:1013D000211D00F0F9F86E48006800F0A4F90298A9
:1013E00007B0F0BC08BC1847FFB583B00D0016006D
:1013F0001F0001200190039C00200090002F01D0CD
:10140000E06B38604020005D0290022140200155D1
:10141000330000F079FC051604080C0E1700E06B91
:101420002843E0630FE0E06B401CE0630BE0E56302
:1014300009E00298022801D0E56301E00020019054
:1014400001E000E0C046C046029801282BD1514877
:101450000068002813D1201D00F0DEF84E49E06A34
:101460000968884202D94C49E06A08601422E16A9E
:1014700051434A4A8818211D00F0A6F804E02100D3
:101480001831474800F0A0F84149E06A0968C96A84
:10149000884208D90C98002802D001210C980160DC
:1014A000012040490860019807B0F0BC08BC18470B
:1014B000F8B505000E002C00002000904020075DCC
:1014C00002210155E06B401CE063012F29D1314816
:1014D0000068002813D1201D00F09EF82E49E06A14
:1014E0000968884202D92C49E06A08601422E16A3E
:1014F00051432A4A8818211D00F066F804E02100B3
:101500001831274800F060F82149E06A0968C96A83
:10151000884206D9002E01D00120306001202149E7
:101520000860F8BC08BC184770B50500002D02D152
:101530001748006800E02800060000F0E9F84020A5
:10154000805D022804D1002140208155012400E063
:10155000002400F0E8F8200070BC08BC1847F8B57B
:1015600004000D00002C02D10948006800E02000B2
:10157000060000F0CDF806480068C76BF06BA84382
:10158000F06300F0D0F83800F8BC08BC1847000041
:1015900078000040B00000409000004098010040FA
:1015A000100200409C000040010008314160002111
:1015B000C943816001000831C160016100210160FF
:1015C000704700210161704742684A6093688B60F0
:1015D000936859609160086103685B1C0360704701
:1015E00010B402000B685C1C002C01D1106907E0EC
:1015F0001000083000E04068446824689C42FAD932
:1016000044684C604C68A160886041600A6114685D
:10161000641C146010BC704701000A694B6888683C
:101620009860081D09C858605068884201D18868D0
:101630005060002008611068401E106010687047FC
:1016400030B40300001F0C1D0460001F3F4C0460F9
:10165000001F0360001F3E4C0460001F3D4C0460EF
:10166000001F3D4C0460001F3C4C0460001F3C4CBC
:101670000460001F3B4C0460001F3B4C0460001FD3
:101680003A4C0460001F3A4C0460001F394C04605F
:10169000001F394C0460001F64100460001F0260CA
:1016A000001F1F240460CC07E40F002C03D020256A
:1016B00004682C430460001F0024046030BC7047A1
:1016C00000212E4AD1602E4811008861032151610A
:1016D0005114C968102291432A4AD1601100096946
:1016E00010221143274A11612749284A11602421F9
:1016F000274A11600121214A5160704710B5FFF758
:10170000DFFF00F019FA002010BC08BC1847704732
:1017100010B500F0E3FA1F480068401C1D4908603E
:1017200010BC08BC184710B51A48006800280AD039
:1017300018480068401E1749086008000068002823
:1017400001D100F0D7FA10BC08BC1847AAAAAAAA6F
:101750001212121211111111101010100909090999
:101760000808080807070707060606060505050511
:10177000040404040303030302020202004000E025
:1017800060EA000000F0FFFF9817000000F1FFFF83
:1017900000F2FFFFB40000400F502DE94B0100EBB9
:1017A0000100A0E310109FE5000081E50000A0E328
:1017B000D00F00E50F50BDE804F05EE2004000E00D
:1017C000454AD008C000454A10600022434B5A6089
:1017D000434A444B5A6000221A600100404A4A6062
:1017E0001A000A607047F8B5040000200090FFF767
:1017F000E1F93D480068002804D1FFF7E1FF01202E
:1018000039490860002C09D008346007400F0028CF
:1018100004D06007400F0821081A0419002C31D0A9
:101820002F4884422ED22D4F3800056801E02F004A
:101830002D686868A04202D228680028F7D129489C
:1018400085421FD038680830009028683860686882
:10185000001B102810D92E196868001B70606C607E
:1018600071681E4800E00068026852688A42FAD334
:10187000026832600660C0461C4968680968081A38
:101880001A490860FFF7DDF80098F8BC08BC184753
:1018900070B506003500002E16D0083D2C00FFF76D
:1018A00089F961680D4800E00068026852688A4260
:1018B000FAD30268226004600C4960680968401825
:1018C0000A490860FFF7BDF870BC08BC1847074814
:1018D000006870477047000054020040B8000040A4
:1018E000F8330000C0000040CC000040C8000040B9
:1018F000013090E12100004A0020B0E3A03071E007
:101900001A00003A203271E00F00003A203471E0F2
:101910000100003A00C0A0E3200000EAA03371E01B
:10192000810340200220B2E0203371E00103402017
:101930000220B2E0A03271E0810240200220B2E039
:10194000203271E0010240200220B2E0A03171E0BB
:10195000810140200220B2E0203171E001014020ED
:101960000220B2E0A03071E0810040200220B2E00D
:10197000011050E00010A0310200A2E01EFF2FE194
:10198000022111E20010614240C032E000006022FA
:10199000203271E01D00003A203471E00F00003A5F
:1019A0000113A0E1203471E03F2382E30B00003AF1
:1019B0000113A0E1203471E03F2682E30700003AE2
:1019C0000113A0E1203471E03F2982E30113A0213B
:1019D0003F2C8223003071E21D00002A2113A02138
:1019E000A03371E0810340200220B2E0203371E097
:1019F000010340200220B2E0A03271E081024020C9
:101A00000220B2E0203271E0010240200220B2E068
:101A1000A03171E0810140200220B2E0203171E06C
:101A2000010140200220B2E0EBFFFF2AA03071E06C
:101A3000810040200220B2E0011050E00010A031EF
:101A40000200A2E0CCCFB0E10000604200106122B1
:101A50001EFF2FE1CCCFB0E10000604201402DE934
:101A60000000B0E30000A0E10240BDE81EFF2FE14E
:101A700070477047704700000E50A0E11A0000EB5D
:101A800005E0A0E10050B0E10D10A0E10A30A0E1B6
:101A90000700C0E300D0A0E160D08DE220402DE936
:101AA000DAF9FFEB2040BDE80060A0E30070A0E39E
:101AB0000080A0E300B0A0E30710C1E305C0A0E1EF
:101AC000C009ACE8C009ACE8C009ACE8C009ACE8A2
:101AD00001D0A0E11EFF2FE110B50400C046C046B2
:101AE0002000FEF78BFB10BC08BC184700009FE5E8
:101AF0001EFF2FE14C36004001C08FE21CFF2FE19A
:101B000001491820ABDFFEE7260002001EFF2FE18F
:101B10007847C0460020B0E3203171E090FFFF3AE3
:101B2000A03271E085FFFF3A203471E07AFFFF3A7E
:101B300000C0A0E399FFFFEA7847C0466C019FE52B
:101B4000000090E500E090E564019FE50200BEE83A
:101B5000001080E50100BEE800F06FE1FF7FDEE8E5
:101B60000000A0E13CE09EE504F05EE2000000EF32
:101B70001EFF2FE104E08EE201002DE900204DE977
:101B80000000A0E104D04DE20100BDE8004020E9E2
:101B900000E0A0E10100BDE8FF7F4EE90000A0E108
:101BA0003CE04EE200004FE101002EE900019FE51C
:101BB000000090E501002EE9F0009FE5001090E59F
:101BC00000E081E5EC009FE50FE0A0E110FF2FE1D0
:101BD000D8009FE5000090E500E090E5D0009FE58B
:101BE0000200BEE8001080E50100BEE800F06FE1F1
:101BF000FF7FDEE80000A0E13CE09EE504F05EE24D
:101C000001002DE900204DE90000A0E104D04DE2E3
:101C10000100BDE8004020E900E0A0E10100BDE8CE
:101C2000FF7F4EE90000A0E13CE04EE200004FE102
:101C300001002EE978009FE5000090E501002EE903
:101C400068009FE5001090E500E081E568009FE5F1
:101C50000FE0A0E110FF2FE1000050E30200000AB6
:101C600050009FE50FE0A0E110FF2FE10100A0E38D
:101C700048109FE5000081E544009FE5000080E5F5
:101C800028009FE5000090E500E090E520009FE53A
:101C90000200BEE8001080E50100BEE800F06FE140
:101CA000FF7FDEE80000A0E13CE09EE504F05EE29C
:101CB00078000040B40000403B0D00007F090000A8
:101CC000004000E030F0FFFF7847C046A6FFFFEA83
:101CD00000C09FE51CFF2FE17F0900007847C04648
:101CE00000000FE1801080E301F021E1800000E2BC
:101CF0001EFF2FE17847C04600000FE18000C0E3DF
:101D000000F021E11EFF2FE17847C04601C05EE5EB
:101D10000C0053E10100003A0C30DEE7000000EA5D
:101D20000330DEE783C08EE01CFF2FE14C1D000076
:101D300000000040D0000000480100001C1E000010
:101D4000D0000040003C00007001000000100000C6
:101D50001101001201001301001401001501001609
:101D600001001701001801001901001A01001B01F0
:101D7000001D01001E01001F0101100101110101E0
:101D800012010113010114010115010116010117CE
:101D900001011801011901011A01011B01011D01B5
:101DA000011E01011F011E000000000000000000D4
:101DB0000000000000000000000000000000000023
:101DC0000000000000000000000000000000000013
:101DD0000000000000000000000000000000000003
:101DE00000000000000000000000000000000000F3
:101DF00000000000000000000000000000000000E3
:101E00000F2700000000000000000000000000009C
:0C1E100000000000F8330000000000009B
:0400000500000104F2
:00000001FF
